{
  "contractName": "AuctionPricer",
  "abi": [
    {
      "constant": true,
      "inputs": [],
      "name": "expireTime",
      "outputs": [
        {
          "name": "",
          "type": "uint256"
        }
      ],
      "payable": false,
      "stateMutability": "view",
      "type": "function"
    },
    {
      "constant": true,
      "inputs": [],
      "name": "startingPrice",
      "outputs": [
        {
          "name": "",
          "type": "uint256"
        }
      ],
      "payable": false,
      "stateMutability": "view",
      "type": "function"
    },
    {
      "constant": true,
      "inputs": [
        {
          "name": "",
          "type": "address"
        }
      ],
      "name": "pricers",
      "outputs": [
        {
          "name": "hasPriced",
          "type": "bool"
        },
        {
          "name": "price",
          "type": "bytes"
        }
      ],
      "payable": false,
      "stateMutability": "view",
      "type": "function"
    },
    {
      "inputs": [
        {
          "name": "_length",
          "type": "uint256"
        }
      ],
      "payable": false,
      "stateMutability": "nonpayable",
      "type": "constructor"
    },
    {
      "constant": false,
      "inputs": [
        {
          "name": "_price",
          "type": "bytes"
        }
      ],
      "name": "sendPrice",
      "outputs": [],
      "payable": false,
      "stateMutability": "nonpayable",
      "type": "function"
    },
    {
      "constant": true,
      "inputs": [
        {
          "name": "_prices",
          "type": "uint256[]"
        }
      ],
      "name": "getAveragePrice",
      "outputs": [
        {
          "name": "",
          "type": "uint256"
        }
      ],
      "payable": false,
      "stateMutability": "pure",
      "type": "function"
    },
    {
      "constant": false,
      "inputs": [
        {
          "name": "_price",
          "type": "uint256"
        }
      ],
      "name": "updateStartingPrice",
      "outputs": [],
      "payable": false,
      "stateMutability": "nonpayable",
      "type": "function"
    },
    {
      "constant": true,
      "inputs": [
        {
          "name": "_user",
          "type": "address"
        }
      ],
      "name": "getPriceforUser",
      "outputs": [
        {
          "name": "",
          "type": "bytes"
        }
      ],
      "payable": false,
      "stateMutability": "view",
      "type": "function"
    }
  ],
  "bytecode": "0x608060405234801561001057600080fd5b506040516020806108e08339810180604052602081101561003057600080fd5b8101908080519060200190929190505050804201600181905550506108868061005a6000396000f3fe608060405260043610610083576000357c0100000000000000000000000000000000000000000000000000000000900463ffffffff168063310a1ee314610088578063448c4484146100b35780637bf493851461018c578063d6fbf20214610256578063db70448b14610281578063f6d3dec214610349578063ff0d54b414610384575b600080fd5b34801561009457600080fd5b5061009d610459565b6040518082815260200191505060405180910390f35b3480156100bf57600080fd5b50610176600480360360208110156100d657600080fd5b81019080803590602001906401000000008111156100f357600080fd5b82018360208201111561010557600080fd5b8035906020019184602083028401116401000000008311171561012757600080fd5b919080806020026020016040519081016040528093929190818152602001838360200280828437600081840152601f19601f82011690508083019250505050505050919291929050505061045f565b6040518082815260200191505060405180910390f35b34801561019857600080fd5b506101db600480360360208110156101af57600080fd5b81019080803573ffffffffffffffffffffffffffffffffffffffff1690602001909291905050506104b0565b6040518080602001828103825283818151815260200191508051906020019080838360005b8381101561021b578082015181840152602081019050610200565b50505050905090810190601f1680156102485780820380516001836020036101000a031916815260200191505b509250505060405180910390f35b34801561026257600080fd5b5061026b6105ed565b6040518082815260200191505060405180910390f35b34801561028d57600080fd5b50610347600480360360208110156102a457600080fd5b81019080803590602001906401000000008111156102c157600080fd5b8201836020820111156102d357600080fd5b803590602001918460018302840111640100000000831117156102f557600080fd5b91908080601f016020809104026020016040519081016040528093929190818152602001838380828437600081840152601f19601f8201169050808301925050505050505091929192905050506105f3565b005b34801561035557600080fd5b506103826004803603602081101561036c57600080fd5b81019080803590602001909291905050506106a7565b005b34801561039057600080fd5b506103d3600480360360208110156103a757600080fd5b81019080803573ffffffffffffffffffffffffffffffffffffffff1690602001909291905050506106ec565b604051808315151515815260200180602001828103825283818151815260200191508051906020019080838360005b8381101561041d578082015181840152602081019050610402565b50505050905090810190601f16801561044a5780820380516001836020036101000a031916815260200191505b50935050505060405180910390f35b60015481565b60008060008090505b835181101561049a57838181518110151561047f57fe5b90602001906020020151820191508080600101915050610468565b508251818115156104a757fe5b04915050919050565b60606000808373ffffffffffffffffffffffffffffffffffffffff1673ffffffffffffffffffffffffffffffffffffffff16815260200190815260200160002060000160009054906101000a900460ff16151561050c57600080fd5b6000808373ffffffffffffffffffffffffffffffffffffffff1673ffffffffffffffffffffffffffffffffffffffff1681526020019081526020016000206001018054600181600116156101000203166002900480601f0160208091040260200160405190810160405280929190818152602001828054600181600116156101000203166002900480156105e15780601f106105b6576101008083540402835291602001916105e1565b820191906000526020600020905b8154815290600101906020018083116105c457829003601f168201915b50505050509050919050565b60025481565b6000803373ffffffffffffffffffffffffffffffffffffffff1673ffffffffffffffffffffffffffffffffffffffff16815260200190815260200160002060000160009054906101000a900460ff1615151561064e57600080fd5b806000803373ffffffffffffffffffffffffffffffffffffffff1673ffffffffffffffffffffffffffffffffffffffff16815260200190815260200160002060010190805190602001906106a39291906107b5565b5050565b600073ffffffffffffffffffffffffffffffffffffffff163373ffffffffffffffffffffffffffffffffffffffff161415156106e257600080fd5b8060028190555050565b60006020528060005260406000206000915090508060000160009054906101000a900460ff1690806001018054600181600116156101000203166002900480601f0160208091040260200160405190810160405280929190818152602001828054600181600116156101000203166002900480156107ab5780601f10610780576101008083540402835291602001916107ab565b820191906000526020600020905b81548152906001019060200180831161078e57829003601f168201915b5050505050905082565b828054600181600116156101000203166002900490600052602060002090601f016020900481019282601f106107f657805160ff1916838001178555610824565b82800160010185558215610824579182015b82811115610823578251825591602001919060010190610808565b5b5090506108319190610835565b5090565b61085791905b8082111561085357600081600090555060010161083b565b5090565b9056fea165627a7a723058203b9c1dc5b12368b02062e93b5994298dfcfd381162a4c26fff7e83d34e11b9a40029",
  "source": "pragma solidity ^0.5.0;\n\ncontract AuctionPricer {\n\n    struct Pricer {\n        bool hasPriced;\n        bytes price;\n    }\n\n    mapping(address => Pricer) public pricers;\n    uint public expireTime;\n    uint public startingPrice;\n \n\n    constructor(uint _length) public {\n        expireTime = now + _length;\n    }\n\n\n    function sendPrice(bytes memory _price) public {\n        require(!pricers[msg.sender].hasPriced);\n        pricers[msg.sender].price = _price;\n    }\n\n    function getAveragePrice(uint[] memory _prices) public pure returns (uint) {\n        uint sum;\n        for( uint i = 0; i < _prices.length; i++ ) {\n            sum += _prices[i];\n        }\n\n        return sum / _prices.length;\n    }\n\n    function updateStartingPrice(uint _price) public onlyNego {\n        startingPrice = _price ;\n    }\n\n    function getPriceforUser(address _user) public view returns (bytes memory) {\n        require(pricers[_user].hasPriced);\n        return pricers[_user].price;\n    }\n\n    modifier onlyNego(){\n        require(msg.sender == address(0));\n        _;\n    }\n}",
  "sourcePath": "/home/devdoe/devdoe/negobox/contracts/AuctionPricer.sol",
  "compiler": {
    "name": "solc",
    "version": "0.5.0+commit.1d4f565a.Emscripten.clang"
  },
  "schemaVersion": "3.0.1",
  "updatedAt": "2019-01-21T07:46:47.233Z",
  "devdoc": {
    "methods": {}
  },
  "userdoc": {
    "methods": {}
  }
}